{
  "_format": "hh-sol-artifact-1",
  "contractName": "DreAmNFT",
  "sourceName": "contracts/DreamNFT.sol",
  "abi": [
    {
      "inputs": [],
      "stateMutability": "nonpayable",
      "type": "constructor"
    },
    {
      "anonymous": false,
      "inputs": [
        {
          "indexed": true,
          "internalType": "address",
          "name": "owner",
          "type": "address"
        },
        {
          "indexed": true,
          "internalType": "address",
          "name": "approved",
          "type": "address"
        },
        {
          "indexed": true,
          "internalType": "uint256",
          "name": "tokenId",
          "type": "uint256"
        }
      ],
      "name": "Approval",
      "type": "event"
    },
    {
      "anonymous": false,
      "inputs": [
        {
          "indexed": true,
          "internalType": "address",
          "name": "owner",
          "type": "address"
        },
        {
          "indexed": true,
          "internalType": "address",
          "name": "operator",
          "type": "address"
        },
        {
          "indexed": false,
          "internalType": "bool",
          "name": "approved",
          "type": "bool"
        }
      ],
      "name": "ApprovalForAll",
      "type": "event"
    },
    {
      "anonymous": false,
      "inputs": [
        {
          "indexed": false,
          "internalType": "uint256",
          "name": "_fromTokenId",
          "type": "uint256"
        },
        {
          "indexed": false,
          "internalType": "uint256",
          "name": "_toTokenId",
          "type": "uint256"
        }
      ],
      "name": "BatchMetadataUpdate",
      "type": "event"
    },
    {
      "anonymous": false,
      "inputs": [
        {
          "indexed": true,
          "internalType": "uint256",
          "name": "tokenId",
          "type": "uint256"
        },
        {
          "indexed": true,
          "internalType": "address",
          "name": "creator",
          "type": "address"
        },
        {
          "indexed": false,
          "internalType": "uint8",
          "name": "rarity",
          "type": "uint8"
        },
        {
          "indexed": false,
          "internalType": "string",
          "name": "tokenURI",
          "type": "string"
        }
      ],
      "name": "DreamMinted",
      "type": "event"
    },
    {
      "anonymous": false,
      "inputs": [
        {
          "indexed": false,
          "internalType": "uint256",
          "name": "_tokenId",
          "type": "uint256"
        }
      ],
      "name": "MetadataUpdate",
      "type": "event"
    },
    {
      "anonymous": false,
      "inputs": [
        {
          "indexed": true,
          "internalType": "address",
          "name": "previousOwner",
          "type": "address"
        },
        {
          "indexed": true,
          "internalType": "address",
          "name": "newOwner",
          "type": "address"
        }
      ],
      "name": "OwnershipTransferred",
      "type": "event"
    },
    {
      "anonymous": false,
      "inputs": [
        {
          "indexed": true,
          "internalType": "uint256",
          "name": "tokenId",
          "type": "uint256"
        },
        {
          "indexed": true,
          "internalType": "address",
          "name": "creator",
          "type": "address"
        },
        {
          "indexed": false,
          "internalType": "uint256",
          "name": "amount",
          "type": "uint256"
        }
      ],
      "name": "RoyaltyPaid",
      "type": "event"
    },
    {
      "anonymous": false,
      "inputs": [
        {
          "indexed": false,
          "internalType": "uint16",
          "name": "newRoyaltyBasisPoints",
          "type": "uint16"
        }
      ],
      "name": "RoyaltyUpdated",
      "type": "event"
    },
    {
      "anonymous": false,
      "inputs": [
        {
          "indexed": true,
          "internalType": "address",
          "name": "from",
          "type": "address"
        },
        {
          "indexed": true,
          "internalType": "address",
          "name": "to",
          "type": "address"
        },
        {
          "indexed": true,
          "internalType": "uint256",
          "name": "tokenId",
          "type": "uint256"
        }
      ],
      "name": "Transfer",
      "type": "event"
    },
    {
      "inputs": [
        {
          "internalType": "address",
          "name": "to",
          "type": "address"
        },
        {
          "internalType": "uint256",
          "name": "tokenId",
          "type": "uint256"
        }
      ],
      "name": "approve",
      "outputs": [],
      "stateMutability": "nonpayable",
      "type": "function"
    },
    {
      "inputs": [
        {
          "internalType": "address",
          "name": "owner",
          "type": "address"
        }
      ],
      "name": "balanceOf",
      "outputs": [
        {
          "internalType": "uint256",
          "name": "",
          "type": "uint256"
        }
      ],
      "stateMutability": "view",
      "type": "function"
    },
    {
      "inputs": [
        {
          "internalType": "uint256",
          "name": "",
          "type": "uint256"
        }
      ],
      "name": "dreamCreator",
      "outputs": [
        {
          "internalType": "address",
          "name": "",
          "type": "address"
        }
      ],
      "stateMutability": "view",
      "type": "function"
    },
    {
      "inputs": [
        {
          "internalType": "uint256",
          "name": "",
          "type": "uint256"
        }
      ],
      "name": "dreamRarity",
      "outputs": [
        {
          "internalType": "uint8",
          "name": "",
          "type": "uint8"
        }
      ],
      "stateMutability": "view",
      "type": "function"
    },
    {
      "inputs": [
        {
          "internalType": "uint256",
          "name": "tokenId",
          "type": "uint256"
        }
      ],
      "name": "getApproved",
      "outputs": [
        {
          "internalType": "address",
          "name": "",
          "type": "address"
        }
      ],
      "stateMutability": "view",
      "type": "function"
    },
    {
      "inputs": [
        {
          "internalType": "uint256",
          "name": "tokenId",
          "type": "uint256"
        },
        {
          "internalType": "uint256",
          "name": "salePrice",
          "type": "uint256"
        }
      ],
      "name": "getRoyaltyInfo",
      "outputs": [
        {
          "internalType": "address",
          "name": "",
          "type": "address"
        },
        {
          "internalType": "uint256",
          "name": "",
          "type": "uint256"
        }
      ],
      "stateMutability": "view",
      "type": "function"
    },
    {
      "inputs": [
        {
          "internalType": "address",
          "name": "owner",
          "type": "address"
        },
        {
          "internalType": "address",
          "name": "operator",
          "type": "address"
        }
      ],
      "name": "isApprovedForAll",
      "outputs": [
        {
          "internalType": "bool",
          "name": "",
          "type": "bool"
        }
      ],
      "stateMutability": "view",
      "type": "function"
    },
    {
      "inputs": [],
      "name": "maxMintPrice",
      "outputs": [
        {
          "internalType": "uint256",
          "name": "",
          "type": "uint256"
        }
      ],
      "stateMutability": "view",
      "type": "function"
    },
    {
      "inputs": [
        {
          "internalType": "address",
          "name": "to",
          "type": "address"
        },
        {
          "internalType": "string",
          "name": "tokenURI_",
          "type": "string"
        },
        {
          "internalType": "uint8",
          "name": "rarity",
          "type": "uint8"
        }
      ],
      "name": "mintDream",
      "outputs": [
        {
          "internalType": "uint256",
          "name": "",
          "type": "uint256"
        }
      ],
      "stateMutability": "payable",
      "type": "function"
    },
    {
      "inputs": [],
      "name": "name",
      "outputs": [
        {
          "internalType": "string",
          "name": "",
          "type": "string"
        }
      ],
      "stateMutability": "view",
      "type": "function"
    },
    {
      "inputs": [],
      "name": "owner",
      "outputs": [
        {
          "internalType": "address",
          "name": "",
          "type": "address"
        }
      ],
      "stateMutability": "view",
      "type": "function"
    },
    {
      "inputs": [
        {
          "internalType": "uint256",
          "name": "tokenId",
          "type": "uint256"
        }
      ],
      "name": "ownerOf",
      "outputs": [
        {
          "internalType": "address",
          "name": "",
          "type": "address"
        }
      ],
      "stateMutability": "view",
      "type": "function"
    },
    {
      "inputs": [],
      "name": "renounceOwnership",
      "outputs": [],
      "stateMutability": "nonpayable",
      "type": "function"
    },
    {
      "inputs": [],
      "name": "royaltyBasisPoints",
      "outputs": [
        {
          "internalType": "uint16",
          "name": "",
          "type": "uint16"
        }
      ],
      "stateMutability": "view",
      "type": "function"
    },
    {
      "inputs": [
        {
          "internalType": "address",
          "name": "from",
          "type": "address"
        },
        {
          "internalType": "address",
          "name": "to",
          "type": "address"
        },
        {
          "internalType": "uint256",
          "name": "tokenId",
          "type": "uint256"
        }
      ],
      "name": "safeTransferFrom",
      "outputs": [],
      "stateMutability": "nonpayable",
      "type": "function"
    },
    {
      "inputs": [
        {
          "internalType": "address",
          "name": "from",
          "type": "address"
        },
        {
          "internalType": "address",
          "name": "to",
          "type": "address"
        },
        {
          "internalType": "uint256",
          "name": "tokenId",
          "type": "uint256"
        },
        {
          "internalType": "bytes",
          "name": "data",
          "type": "bytes"
        }
      ],
      "name": "safeTransferFrom",
      "outputs": [],
      "stateMutability": "nonpayable",
      "type": "function"
    },
    {
      "inputs": [
        {
          "internalType": "address",
          "name": "operator",
          "type": "address"
        },
        {
          "internalType": "bool",
          "name": "approved",
          "type": "bool"
        }
      ],
      "name": "setApprovalForAll",
      "outputs": [],
      "stateMutability": "nonpayable",
      "type": "function"
    },
    {
      "inputs": [
        {
          "internalType": "string",
          "name": "baseURI_",
          "type": "string"
        }
      ],
      "name": "setBaseURI",
      "outputs": [],
      "stateMutability": "nonpayable",
      "type": "function"
    },
    {
      "inputs": [
        {
          "internalType": "bytes4",
          "name": "interfaceId",
          "type": "bytes4"
        }
      ],
      "name": "supportsInterface",
      "outputs": [
        {
          "internalType": "bool",
          "name": "",
          "type": "bool"
        }
      ],
      "stateMutability": "view",
      "type": "function"
    },
    {
      "inputs": [],
      "name": "symbol",
      "outputs": [
        {
          "internalType": "string",
          "name": "",
          "type": "string"
        }
      ],
      "stateMutability": "view",
      "type": "function"
    },
    {
      "inputs": [
        {
          "internalType": "uint256",
          "name": "index",
          "type": "uint256"
        }
      ],
      "name": "tokenByIndex",
      "outputs": [
        {
          "internalType": "uint256",
          "name": "",
          "type": "uint256"
        }
      ],
      "stateMutability": "view",
      "type": "function"
    },
    {
      "inputs": [
        {
          "internalType": "address",
          "name": "owner",
          "type": "address"
        },
        {
          "internalType": "uint256",
          "name": "index",
          "type": "uint256"
        }
      ],
      "name": "tokenOfOwnerByIndex",
      "outputs": [
        {
          "internalType": "uint256",
          "name": "",
          "type": "uint256"
        }
      ],
      "stateMutability": "view",
      "type": "function"
    },
    {
      "inputs": [
        {
          "internalType": "uint256",
          "name": "tokenId",
          "type": "uint256"
        }
      ],
      "name": "tokenURI",
      "outputs": [
        {
          "internalType": "string",
          "name": "",
          "type": "string"
        }
      ],
      "stateMutability": "view",
      "type": "function"
    },
    {
      "inputs": [],
      "name": "totalSupply",
      "outputs": [
        {
          "internalType": "uint256",
          "name": "",
          "type": "uint256"
        }
      ],
      "stateMutability": "view",
      "type": "function"
    },
    {
      "inputs": [
        {
          "internalType": "address",
          "name": "from",
          "type": "address"
        },
        {
          "internalType": "address",
          "name": "to",
          "type": "address"
        },
        {
          "internalType": "uint256",
          "name": "tokenId",
          "type": "uint256"
        }
      ],
      "name": "transferFrom",
      "outputs": [],
      "stateMutability": "nonpayable",
      "type": "function"
    },
    {
      "inputs": [
        {
          "internalType": "address",
          "name": "newOwner",
          "type": "address"
        }
      ],
      "name": "transferOwnership",
      "outputs": [],
      "stateMutability": "nonpayable",
      "type": "function"
    },
    {
      "inputs": [
        {
          "internalType": "uint256",
          "name": "newMaxPrice",
          "type": "uint256"
        }
      ],
      "name": "updateMaxMintPrice",
      "outputs": [],
      "stateMutability": "nonpayable",
      "type": "function"
    },
    {
      "inputs": [
        {
          "internalType": "uint16",
          "name": "newRoyaltyBasisPoints",
          "type": "uint16"
        }
      ],
      "name": "updateRoyalty",
      "outputs": [],
      "stateMutability": "nonpayable",
      "type": "function"
    },
    {
      "inputs": [],
      "name": "withdraw",
      "outputs": [],
      "stateMutability": "nonpayable",
      "type": "function"
    }
  ],
  "bytecode": "0x60806040526010805461ffff191660fa17905567016345785d8a00006011553480156200002b57600080fd5b5060405180604001604052806008815260200167111c99505b53919560c21b81525060405180604001604052806005815260200164445245414d60d81b81525081600090816200007c9190620001d1565b5060016200008b8282620001d1565b505050620000a8620000a2620000cd60201b60201c565b620000d1565b6001600c81905550620000c7600d6200012360201b62000f1e1760201c565b6200029d565b3390565b600b80546001600160a01b038381166001600160a01b0319831681179093556040519116919082907f8be0079c531659141344cd1fd0a4f28419497f9722a3daafe3b4186f6b6457e090600090a35050565b80546001019055565b634e487b7160e01b600052604160045260246000fd5b600181811c908216806200015757607f821691505b6020821081036200017857634e487b7160e01b600052602260045260246000fd5b50919050565b601f821115620001cc57600081815260208120601f850160051c81016020861015620001a75750805b601f850160051c820191505b81811015620001c857828155600101620001b3565b5050505b505050565b81516001600160401b03811115620001ed57620001ed6200012c565b6200020581620001fe845462000142565b846200017e565b602080601f8311600181146200023d5760008415620002245750858301515b600019600386901b1c1916600185901b178555620001c8565b600085815260208120601f198616915b828110156200026e578886015182559484019460019091019084016200024d565b50858210156200028d5787850151600019600388901b60f8161c191681555b5050505050600190811b01905550565b61253c80620002ad6000396000f3fe6080604052600436106101c25760003560e01c806355f804b3116100f757806395d89b4111610095578063c87b56dd11610064578063c87b56dd14610520578063e57b781514610540578063e985e9c514610582578063f2fde38b146105cb57600080fd5b806395d89b411461048c578063a22cb465146104a1578063b88d4fde146104c1578063c7ed115e146104e157600080fd5b80636ba79615116100d15780636ba796151461041957806370a0823114610439578063715018a6146104595780638da5cb5b1461046e57600080fd5b806355f804b3146103c65780636352211e146103e65780636a09a6791461040657600080fd5b80632f745c591161016457806342260b5d1161013e57806342260b5d1461032257806342842e0e146103505780634f6ccce7146103705780635002c9be1461039057600080fd5b80632f745c59146102d757806332cb9eea146102f75780633ccfd60b1461030d57600080fd5b8063095ea7b3116101a0578063095ea7b31461025657806318160ddd14610278578063236368421461029757806323b872dd146102b757600080fd5b806301ffc9a7146101c757806306fdde03146101fc578063081812fc1461021e575b600080fd5b3480156101d357600080fd5b506101e76101e2366004611df7565b6105eb565b60405190151581526020015b60405180910390f35b34801561020857600080fd5b506102116105fc565b6040516101f39190611e64565b34801561022a57600080fd5b5061023e610239366004611e77565b61068e565b6040516001600160a01b0390911681526020016101f3565b34801561026257600080fd5b50610276610271366004611eac565b6106b5565b005b34801561028457600080fd5b506008545b6040519081526020016101f3565b3480156102a357600080fd5b506102766102b2366004611ed6565b6107cf565b3480156102c357600080fd5b506102766102d2366004611efa565b610877565b3480156102e357600080fd5b506102896102f2366004611eac565b6108a8565b34801561030357600080fd5b5061028960115481565b34801561031957600080fd5b5061027661093e565b34801561032e57600080fd5b5060105461033d9061ffff1681565b60405161ffff90911681526020016101f3565b34801561035c57600080fd5b5061027661036b366004611efa565b610a39565b34801561037c57600080fd5b5061028961038b366004611e77565b610a54565b34801561039c57600080fd5b5061023e6103ab366004611e77565b600f602052600090815260409020546001600160a01b031681565b3480156103d257600080fd5b506102766103e1366004611fe2565b610ae7565b3480156103f257600080fd5b5061023e610401366004611e77565b610afb565b610289610414366004612017565b610b5b565b34801561042557600080fd5b50610276610434366004611e77565b610cf3565b34801561044557600080fd5b5061028961045436600461207f565b610d00565b34801561046557600080fd5b50610276610d86565b34801561047a57600080fd5b50600b546001600160a01b031661023e565b34801561049857600080fd5b50610211610d9a565b3480156104ad57600080fd5b506102766104bc36600461209a565b610da9565b3480156104cd57600080fd5b506102766104dc3660046120d6565b610db4565b3480156104ed57600080fd5b506105016104fc366004612152565b610dec565b604080516001600160a01b0390931683526020830191909152016101f3565b34801561052c57600080fd5b5061021161053b366004611e77565b610e9a565b34801561054c57600080fd5b5061057061055b366004611e77565b600e6020526000908152604090205460ff1681565b60405160ff90911681526020016101f3565b34801561058e57600080fd5b506101e761059d366004612174565b6001600160a01b03918216600090815260056020908152604080832093909416825291909152205460ff1690565b3480156105d757600080fd5b506102766105e636600461207f565b610ea5565b60006105f682610f27565b92915050565b60606000805461060b906121a7565b80601f0160208091040260200160405190810160405280929190818152602001828054610637906121a7565b80156106845780601f1061065957610100808354040283529160200191610684565b820191906000526020600020905b81548152906001019060200180831161066757829003601f168201915b5050505050905090565b600061069982610f4c565b506000908152600460205260409020546001600160a01b031690565b60006106c082610afb565b9050806001600160a01b0316836001600160a01b0316036107325760405162461bcd60e51b815260206004820152602160248201527f4552433732313a20617070726f76616c20746f2063757272656e74206f776e656044820152603960f91b60648201526084015b60405180910390fd5b336001600160a01b038216148061074e575061074e813361059d565b6107c05760405162461bcd60e51b815260206004820152603d60248201527f4552433732313a20617070726f76652063616c6c6572206973206e6f7420746f60448201527f6b656e206f776e6572206f7220617070726f76656420666f7220616c6c0000006064820152608401610729565b6107ca8383610fab565b505050565b6107d7611019565b6103e88161ffff16111561082d5760405162461bcd60e51b815260206004820152601960248201527f526f79616c74792063616e6e6f742065786365656420313025000000000000006044820152606401610729565b6010805461ffff191661ffff83169081179091556040519081527fda0fdc743bf03c626bcac6e6509af1b15dfa6dabfde58682f6706b85efa9f9b49060200160405180910390a150565b6108813382611073565b61089d5760405162461bcd60e51b8152600401610729906121e1565b6107ca8383836110f2565b60006108b383610d00565b82106109155760405162461bcd60e51b815260206004820152602b60248201527f455243373231456e756d657261626c653a206f776e657220696e646578206f7560448201526a74206f6620626f756e647360a81b6064820152608401610729565b506001600160a01b03919091166000908152600660209081526040808320938352929052205490565b610946611019565b478061098d5760405162461bcd60e51b81526020600482015260166024820152754e6f2062616c616e636520746f20776974686472617760501b6044820152606401610729565b60006109a1600b546001600160a01b031690565b6001600160a01b03168260405160006040518083038185875af1925050503d80600081146109eb576040519150601f19603f3d011682016040523d82523d6000602084013e6109f0565b606091505b5050905080610a355760405162461bcd60e51b815260206004820152601160248201527015da5d1a191c985dd85b0819985a5b1959607a1b6044820152606401610729565b5050565b6107ca83838360405180602001604052806000815250610db4565b6000610a5f60085490565b8210610ac25760405162461bcd60e51b815260206004820152602c60248201527f455243373231456e756d657261626c653a20676c6f62616c20696e646578206f60448201526b7574206f6620626f756e647360a01b6064820152608401610729565b60088281548110610ad557610ad561222e565b90600052602060002001549050919050565b610aef611019565b6012610a358282612292565b6000818152600260205260408120546001600160a01b0316806105f65760405162461bcd60e51b8152602060048201526018602482015277115490cdcc8c4e881a5b9d985b1a59081d1bdad95b88125160421b6044820152606401610729565b6000610b65611263565b60048260ff161115610bb05760405162461bcd60e51b8152602060048201526014602482015273125b9d985b1a59081c985c9a5d1e481b195d995b60621b6044820152606401610729565b600b546001600160a01b03163314801590610bce57508160ff166004145b15610c3b5766b1a2bc2ec50000341015610c3b5760405162461bcd60e51b815260206004820152602860248201527f496e73756666696369656e74207061796d656e7420666f72206c6567656e6461604482015267727920647265616d60c01b6064820152608401610729565b6000610c46600d5490565b9050610c56600d80546001019055565b610c6085826112bc565b610c6a81856112d6565b6000818152600e60209081526040808320805460ff191660ff8816179055600f909152908190208054336001600160a01b03199091168117909155905182907fac47a606b5bed188cd434372d1260a18df3776922428444364f1598c5595492a90610cd89087908990612352565b60405180910390a39050610cec6001600c55565b9392505050565b610cfb611019565b601155565b60006001600160a01b038216610d6a5760405162461bcd60e51b815260206004820152602960248201527f4552433732313a2061646472657373207a65726f206973206e6f7420612076616044820152683634b21037bbb732b960b91b6064820152608401610729565b506001600160a01b031660009081526003602052604090205490565b610d8e611019565b610d9860006113a1565b565b60606001805461060b906121a7565b610a353383836113f3565b610dbe3383611073565b610dda5760405162461bcd60e51b8152600401610729906121e1565b610de6848484846114c1565b50505050565b60008281526002602052604081205481906001600160a01b0316610e525760405162461bcd60e51b815260206004820152601b60248201527f517565727920666f72206e6f6e6578697374656e7420746f6b656e00000000006044820152606401610729565b6000848152600f60205260408120546010546001600160a01b03909116919061271090610e839061ffff1687612384565b610e8d919061239b565b9196919550909350505050565b60606105f6826114f4565b610ead611019565b6001600160a01b038116610f125760405162461bcd60e51b815260206004820152602660248201527f4f776e61626c653a206e6577206f776e657220697320746865207a65726f206160448201526564647265737360d01b6064820152608401610729565b610f1b816113a1565b50565b80546001019055565b60006001600160e01b03198216632483248360e11b14806105f657506105f6826115ef565b6000818152600260205260409020546001600160a01b0316610f1b5760405162461bcd60e51b8152602060048201526018602482015277115490cdcc8c4e881a5b9d985b1a59081d1bdad95b88125160421b6044820152606401610729565b600081815260046020526040902080546001600160a01b0319166001600160a01b0384169081179091558190610fe082610afb565b6001600160a01b03167f8c5be1e5ebec7d5bd14f71427d1e84f3dd0314c0f7b2291e5b200ac8c7c3b92560405160405180910390a45050565b600b546001600160a01b03163314610d985760405162461bcd60e51b815260206004820181905260248201527f4f776e61626c653a2063616c6c6572206973206e6f7420746865206f776e65726044820152606401610729565b60008061107f83610afb565b9050806001600160a01b0316846001600160a01b031614806110c657506001600160a01b0380821660009081526005602090815260408083209388168352929052205460ff165b806110ea5750836001600160a01b03166110df8461068e565b6001600160a01b0316145b949350505050565b826001600160a01b031661110582610afb565b6001600160a01b03161461112b5760405162461bcd60e51b8152600401610729906123bd565b6001600160a01b03821661118d5760405162461bcd60e51b8152602060048201526024808201527f4552433732313a207472616e7366657220746f20746865207a65726f206164646044820152637265737360e01b6064820152608401610729565b61119a8383836001611614565b826001600160a01b03166111ad82610afb565b6001600160a01b0316146111d35760405162461bcd60e51b8152600401610729906123bd565b600081815260046020908152604080832080546001600160a01b03199081169091556001600160a01b0387811680865260038552838620805460001901905590871680865283862080546001019055868652600290945282852080549092168417909155905184937fddf252ad1be2c89b69c2b068fc378daa952ba7f163c4a11628f55a4df523b3ef91a4505050565b6002600c54036112b55760405162461bcd60e51b815260206004820152601f60248201527f5265656e7472616e637947756172643a207265656e7472616e742063616c6c006044820152606401610729565b6002600c55565b610a35828260405180602001604052806000815250611620565b6000828152600260205260409020546001600160a01b03166113515760405162461bcd60e51b815260206004820152602e60248201527f45524337323155524953746f726167653a2055524920736574206f66206e6f6e60448201526d32bc34b9ba32b73a103a37b5b2b760911b6064820152608401610729565b6000828152600a602052604090206113698282612292565b506040518281527ff8e1a15aba9398e019f0b49df1a4fde98ee17ae345cb5f6b5e2c27f5033e8ce79060200160405180910390a15050565b600b80546001600160a01b038381166001600160a01b0319831681179093556040519116919082907f8be0079c531659141344cd1fd0a4f28419497f9722a3daafe3b4186f6b6457e090600090a35050565b816001600160a01b0316836001600160a01b0316036114545760405162461bcd60e51b815260206004820152601960248201527f4552433732313a20617070726f766520746f2063616c6c6572000000000000006044820152606401610729565b6001600160a01b03838116600081815260056020908152604080832094871680845294825291829020805460ff191686151590811790915591519182527f17307eab39ab6107e8899845ad3d59bd9653f200f220920489ca2b5937696c31910160405180910390a3505050565b6114cc8484846110f2565b6114d884848484611653565b610de65760405162461bcd60e51b815260040161072990612402565b60606114ff82610f4c565b6000828152600a602052604081208054611518906121a7565b80601f0160208091040260200160405190810160405280929190818152602001828054611544906121a7565b80156115915780601f1061156657610100808354040283529160200191611591565b820191906000526020600020905b81548152906001019060200180831161157457829003601f168201915b5050505050905060006115a2611754565b905080516000036115b4575092915050565b8151156115e65780826040516020016115ce929190612454565b60405160208183030381529060405292505050919050565b6110ea84611763565b60006001600160e01b0319821663780e9d6360e01b14806105f657506105f6826117c9565b610de684848484611819565b61162a838361194d565b6116376000848484611653565b6107ca5760405162461bcd60e51b815260040161072990612402565b60006001600160a01b0384163b1561174957604051630a85bd0160e11b81526001600160a01b0385169063150b7a0290611697903390899088908890600401612483565b6020604051808303816000875af19250505080156116d2575060408051601f3d908101601f191682019092526116cf918101906124c0565b60015b61172f573d808015611700576040519150601f19603f3d011682016040523d82523d6000602084013e611705565b606091505b5080516000036117275760405162461bcd60e51b815260040161072990612402565b805181602001fd5b6001600160e01b031916630a85bd0160e11b1490506110ea565b506001949350505050565b60606012805461060b906121a7565b606061176e82610f4c565b6000611778611754565b905060008151116117985760405180602001604052806000815250610cec565b806117a284611ae6565b6040516020016117b3929190612454565b6040516020818303038152906040529392505050565b60006001600160e01b031982166380ac58cd60e01b14806117fa57506001600160e01b03198216635b5e139f60e01b145b806105f657506301ffc9a760e01b6001600160e01b03198316146105f6565b60018111156118885760405162461bcd60e51b815260206004820152603560248201527f455243373231456e756d657261626c653a20636f6e7365637574697665207472604482015274185b9cd9995c9cc81b9bdd081cdd5c1c1bdc9d1959605a1b6064820152608401610729565b816001600160a01b0385166118e4576118df81600880546000838152600960205260408120829055600182018355919091527ff3f7a9fe364faab93b216da50a3214154f22a0a2b415b23a84c8169e8b636ee30155565b611907565b836001600160a01b0316856001600160a01b031614611907576119078582611b79565b6001600160a01b0384166119235761191e81611c16565b611946565b846001600160a01b0316846001600160a01b031614611946576119468482611cc5565b5050505050565b6001600160a01b0382166119a35760405162461bcd60e51b815260206004820181905260248201527f4552433732313a206d696e7420746f20746865207a65726f20616464726573736044820152606401610729565b6000818152600260205260409020546001600160a01b031615611a085760405162461bcd60e51b815260206004820152601c60248201527f4552433732313a20746f6b656e20616c7265616479206d696e746564000000006044820152606401610729565b611a16600083836001611614565b6000818152600260205260409020546001600160a01b031615611a7b5760405162461bcd60e51b815260206004820152601c60248201527f4552433732313a20746f6b656e20616c7265616479206d696e746564000000006044820152606401610729565b6001600160a01b038216600081815260036020908152604080832080546001019055848352600290915280822080546001600160a01b0319168417905551839291907fddf252ad1be2c89b69c2b068fc378daa952ba7f163c4a11628f55a4df523b3ef908290a45050565b60606000611af383611d09565b600101905060008167ffffffffffffffff811115611b1357611b13611f36565b6040519080825280601f01601f191660200182016040528015611b3d576020820181803683370190505b5090508181016020015b600019016f181899199a1a9b1b9c1cb0b131b232b360811b600a86061a8153600a8504945084611b4757509392505050565b60006001611b8684610d00565b611b9091906124dd565b600083815260076020526040902054909150808214611be3576001600160a01b03841660009081526006602090815260408083208584528252808320548484528184208190558352600790915290208190555b5060009182526007602090815260408084208490556001600160a01b039094168352600681528383209183525290812055565b600854600090611c28906001906124dd565b60008381526009602052604081205460088054939450909284908110611c5057611c5061222e565b906000526020600020015490508060088381548110611c7157611c7161222e565b6000918252602080832090910192909255828152600990915260408082208490558582528120556008805480611ca957611ca96124f0565b6001900381819060005260206000200160009055905550505050565b6000611cd083610d00565b6001600160a01b039093166000908152600660209081526040808320868452825280832085905593825260079052919091209190915550565b60008072184f03e93ff9f4daa797ed6e38ed64bf6a1f0160401b8310611d485772184f03e93ff9f4daa797ed6e38ed64bf6a1f0160401b830492506040015b6d04ee2d6d415b85acef81000000008310611d74576d04ee2d6d415b85acef8100000000830492506020015b662386f26fc100008310611d9257662386f26fc10000830492506010015b6305f5e1008310611daa576305f5e100830492506008015b6127108310611dbe57612710830492506004015b60648310611dd0576064830492506002015b600a83106105f65760010192915050565b6001600160e01b031981168114610f1b57600080fd5b600060208284031215611e0957600080fd5b8135610cec81611de1565b60005b83811015611e2f578181015183820152602001611e17565b50506000910152565b60008151808452611e50816020860160208601611e14565b601f01601f19169290920160200192915050565b602081526000610cec6020830184611e38565b600060208284031215611e8957600080fd5b5035919050565b80356001600160a01b0381168114611ea757600080fd5b919050565b60008060408385031215611ebf57600080fd5b611ec883611e90565b946020939093013593505050565b600060208284031215611ee857600080fd5b813561ffff81168114610cec57600080fd5b600080600060608486031215611f0f57600080fd5b611f1884611e90565b9250611f2660208501611e90565b9150604084013590509250925092565b634e487b7160e01b600052604160045260246000fd5b600067ffffffffffffffff80841115611f6757611f67611f36565b604051601f8501601f19908116603f01168101908282118183101715611f8f57611f8f611f36565b81604052809350858152868686011115611fa857600080fd5b858560208301376000602087830101525050509392505050565b600082601f830112611fd357600080fd5b610cec83833560208501611f4c565b600060208284031215611ff457600080fd5b813567ffffffffffffffff81111561200b57600080fd5b6110ea84828501611fc2565b60008060006060848603121561202c57600080fd5b61203584611e90565b9250602084013567ffffffffffffffff81111561205157600080fd5b61205d86828701611fc2565b925050604084013560ff8116811461207457600080fd5b809150509250925092565b60006020828403121561209157600080fd5b610cec82611e90565b600080604083850312156120ad57600080fd5b6120b683611e90565b9150602083013580151581146120cb57600080fd5b809150509250929050565b600080600080608085870312156120ec57600080fd5b6120f585611e90565b935061210360208601611e90565b925060408501359150606085013567ffffffffffffffff81111561212657600080fd5b8501601f8101871361213757600080fd5b61214687823560208401611f4c565b91505092959194509250565b6000806040838503121561216557600080fd5b50508035926020909101359150565b6000806040838503121561218757600080fd5b61219083611e90565b915061219e60208401611e90565b90509250929050565b600181811c908216806121bb57607f821691505b6020821081036121db57634e487b7160e01b600052602260045260246000fd5b50919050565b6020808252602d908201527f4552433732313a2063616c6c6572206973206e6f7420746f6b656e206f776e6560408201526c1c881bdc88185c1c1c9bdd9959609a1b606082015260800190565b634e487b7160e01b600052603260045260246000fd5b601f8211156107ca57600081815260208120601f850160051c8101602086101561226b5750805b601f850160051c820191505b8181101561228a57828155600101612277565b505050505050565b815167ffffffffffffffff8111156122ac576122ac611f36565b6122c0816122ba84546121a7565b84612244565b602080601f8311600181146122f557600084156122dd5750858301515b600019600386901b1c1916600185901b17855561228a565b600085815260208120601f198616915b8281101561232457888601518255948401946001909101908401612305565b50858210156123425787850151600019600388901b60f8161c191681555b5050505050600190811b01905550565b60ff831681526040602082015260006110ea6040830184611e38565b634e487b7160e01b600052601160045260246000fd5b80820281158282048414176105f6576105f661236e565b6000826123b857634e487b7160e01b600052601260045260246000fd5b500490565b60208082526025908201527f4552433732313a207472616e736665722066726f6d20696e636f72726563742060408201526437bbb732b960d91b606082015260800190565b60208082526032908201527f4552433732313a207472616e7366657220746f206e6f6e20455243373231526560408201527131b2b4bb32b91034b6b83632b6b2b73a32b960711b606082015260800190565b60008351612466818460208801611e14565b83519083019061247a818360208801611e14565b01949350505050565b6001600160a01b03858116825284166020820152604081018390526080606082018190526000906124b690830184611e38565b9695505050505050565b6000602082840312156124d257600080fd5b8151610cec81611de1565b818103818111156105f6576105f661236e565b634e487b7160e01b600052603160045260246000fdfea2646970667358221220c4f50899cafff5194ae0b3b26d87b3740fe86b6e583ecf08a8da116684bc77bb64736f6c63430008110033",
  "linkReferences": {},
  "deployedLinkReferences": {}
}