{
  "_format": "hh-sol-artifact-1",
  "contractName": "DreAmMarketplace",
  "sourceName": "contracts/DreamMarketplace.sol",
  "abi": [
    {
      "inputs": [],
      "stateMutability": "nonpayable",
      "type": "constructor"
    },
    {
      "anonymous": false,
      "inputs": [
        {
          "indexed": true,
          "internalType": "uint256",
          "name": "listingId",
          "type": "uint256"
        }
      ],
      "name": "ListingCancelled",
      "type": "event"
    },
    {
      "anonymous": false,
      "inputs": [
        {
          "indexed": true,
          "internalType": "uint256",
          "name": "listingId",
          "type": "uint256"
        },
        {
          "indexed": true,
          "internalType": "address",
          "name": "nftContract",
          "type": "address"
        },
        {
          "indexed": true,
          "internalType": "uint256",
          "name": "tokenId",
          "type": "uint256"
        },
        {
          "indexed": false,
          "internalType": "address",
          "name": "seller",
          "type": "address"
        },
        {
          "indexed": false,
          "internalType": "uint256",
          "name": "price",
          "type": "uint256"
        }
      ],
      "name": "ListingCreated",
      "type": "event"
    },
    {
      "anonymous": false,
      "inputs": [
        {
          "indexed": true,
          "internalType": "uint256",
          "name": "listingId",
          "type": "uint256"
        },
        {
          "indexed": true,
          "internalType": "address",
          "name": "buyer",
          "type": "address"
        },
        {
          "indexed": false,
          "internalType": "uint256",
          "name": "price",
          "type": "uint256"
        }
      ],
      "name": "ListingSold",
      "type": "event"
    },
    {
      "anonymous": false,
      "inputs": [
        {
          "indexed": false,
          "internalType": "uint16",
          "name": "newMarketplaceFee",
          "type": "uint16"
        }
      ],
      "name": "MarketplaceFeeUpdated",
      "type": "event"
    },
    {
      "anonymous": false,
      "inputs": [
        {
          "indexed": true,
          "internalType": "address",
          "name": "previousOwner",
          "type": "address"
        },
        {
          "indexed": true,
          "internalType": "address",
          "name": "newOwner",
          "type": "address"
        }
      ],
      "name": "OwnershipTransferred",
      "type": "event"
    },
    {
      "inputs": [
        {
          "internalType": "uint256",
          "name": "listingId",
          "type": "uint256"
        }
      ],
      "name": "buyNFT",
      "outputs": [],
      "stateMutability": "payable",
      "type": "function"
    },
    {
      "inputs": [
        {
          "internalType": "uint256",
          "name": "listingId",
          "type": "uint256"
        }
      ],
      "name": "cancelListing",
      "outputs": [],
      "stateMutability": "nonpayable",
      "type": "function"
    },
    {
      "inputs": [
        {
          "internalType": "address",
          "name": "nftContract",
          "type": "address"
        },
        {
          "internalType": "uint256",
          "name": "tokenId",
          "type": "uint256"
        },
        {
          "internalType": "uint256",
          "name": "price",
          "type": "uint256"
        }
      ],
      "name": "createListing",
      "outputs": [
        {
          "internalType": "uint256",
          "name": "",
          "type": "uint256"
        }
      ],
      "stateMutability": "nonpayable",
      "type": "function"
    },
    {
      "inputs": [],
      "name": "getActiveListings",
      "outputs": [
        {
          "components": [
            {
              "internalType": "uint256",
              "name": "listingId",
              "type": "uint256"
            },
            {
              "internalType": "address",
              "name": "nftContract",
              "type": "address"
            },
            {
              "internalType": "uint256",
              "name": "tokenId",
              "type": "uint256"
            },
            {
              "internalType": "address",
              "name": "seller",
              "type": "address"
            },
            {
              "internalType": "address",
              "name": "buyer",
              "type": "address"
            },
            {
              "internalType": "uint256",
              "name": "price",
              "type": "uint256"
            },
            {
              "internalType": "bool",
              "name": "active",
              "type": "bool"
            },
            {
              "internalType": "uint256",
              "name": "listedAt",
              "type": "uint256"
            },
            {
              "internalType": "uint256",
              "name": "soldAt",
              "type": "uint256"
            }
          ],
          "internalType": "struct DreAmMarketplace.Listing[]",
          "name": "",
          "type": "tuple[]"
        }
      ],
      "stateMutability": "view",
      "type": "function"
    },
    {
      "inputs": [
        {
          "internalType": "uint256",
          "name": "listingId",
          "type": "uint256"
        }
      ],
      "name": "getListing",
      "outputs": [
        {
          "components": [
            {
              "internalType": "uint256",
              "name": "listingId",
              "type": "uint256"
            },
            {
              "internalType": "address",
              "name": "nftContract",
              "type": "address"
            },
            {
              "internalType": "uint256",
              "name": "tokenId",
              "type": "uint256"
            },
            {
              "internalType": "address",
              "name": "seller",
              "type": "address"
            },
            {
              "internalType": "address",
              "name": "buyer",
              "type": "address"
            },
            {
              "internalType": "uint256",
              "name": "price",
              "type": "uint256"
            },
            {
              "internalType": "bool",
              "name": "active",
              "type": "bool"
            },
            {
              "internalType": "uint256",
              "name": "listedAt",
              "type": "uint256"
            },
            {
              "internalType": "uint256",
              "name": "soldAt",
              "type": "uint256"
            }
          ],
          "internalType": "struct DreAmMarketplace.Listing",
          "name": "",
          "type": "tuple"
        }
      ],
      "stateMutability": "view",
      "type": "function"
    },
    {
      "inputs": [
        {
          "internalType": "address",
          "name": "seller",
          "type": "address"
        }
      ],
      "name": "getListingsBySeller",
      "outputs": [
        {
          "components": [
            {
              "internalType": "uint256",
              "name": "listingId",
              "type": "uint256"
            },
            {
              "internalType": "address",
              "name": "nftContract",
              "type": "address"
            },
            {
              "internalType": "uint256",
              "name": "tokenId",
              "type": "uint256"
            },
            {
              "internalType": "address",
              "name": "seller",
              "type": "address"
            },
            {
              "internalType": "address",
              "name": "buyer",
              "type": "address"
            },
            {
              "internalType": "uint256",
              "name": "price",
              "type": "uint256"
            },
            {
              "internalType": "bool",
              "name": "active",
              "type": "bool"
            },
            {
              "internalType": "uint256",
              "name": "listedAt",
              "type": "uint256"
            },
            {
              "internalType": "uint256",
              "name": "soldAt",
              "type": "uint256"
            }
          ],
          "internalType": "struct DreAmMarketplace.Listing[]",
          "name": "",
          "type": "tuple[]"
        }
      ],
      "stateMutability": "view",
      "type": "function"
    },
    {
      "inputs": [
        {
          "internalType": "uint256",
          "name": "",
          "type": "uint256"
        }
      ],
      "name": "listings",
      "outputs": [
        {
          "internalType": "uint256",
          "name": "listingId",
          "type": "uint256"
        },
        {
          "internalType": "address",
          "name": "nftContract",
          "type": "address"
        },
        {
          "internalType": "uint256",
          "name": "tokenId",
          "type": "uint256"
        },
        {
          "internalType": "address",
          "name": "seller",
          "type": "address"
        },
        {
          "internalType": "address",
          "name": "buyer",
          "type": "address"
        },
        {
          "internalType": "uint256",
          "name": "price",
          "type": "uint256"
        },
        {
          "internalType": "bool",
          "name": "active",
          "type": "bool"
        },
        {
          "internalType": "uint256",
          "name": "listedAt",
          "type": "uint256"
        },
        {
          "internalType": "uint256",
          "name": "soldAt",
          "type": "uint256"
        }
      ],
      "stateMutability": "view",
      "type": "function"
    },
    {
      "inputs": [],
      "name": "marketplaceFee",
      "outputs": [
        {
          "internalType": "uint16",
          "name": "",
          "type": "uint16"
        }
      ],
      "stateMutability": "view",
      "type": "function"
    },
    {
      "inputs": [],
      "name": "owner",
      "outputs": [
        {
          "internalType": "address",
          "name": "",
          "type": "address"
        }
      ],
      "stateMutability": "view",
      "type": "function"
    },
    {
      "inputs": [],
      "name": "renounceOwnership",
      "outputs": [],
      "stateMutability": "nonpayable",
      "type": "function"
    },
    {
      "inputs": [
        {
          "internalType": "address",
          "name": "newOwner",
          "type": "address"
        }
      ],
      "name": "transferOwnership",
      "outputs": [],
      "stateMutability": "nonpayable",
      "type": "function"
    },
    {
      "inputs": [
        {
          "internalType": "uint16",
          "name": "newMarketplaceFee",
          "type": "uint16"
        }
      ],
      "name": "updateMarketplaceFee",
      "outputs": [],
      "stateMutability": "nonpayable",
      "type": "function"
    },
    {
      "inputs": [],
      "name": "withdrawFees",
      "outputs": [],
      "stateMutability": "nonpayable",
      "type": "function"
    }
  ],
  "bytecode": "0x60806040526003805461ffff191660fa17905534801561001e57600080fd5b50600160005561002d33610046565b610041600261009860201b6113021760201c565b6100a1565b600180546001600160a01b038381166001600160a01b0319831681179093556040519116919082907f8be0079c531659141344cd1fd0a4f28419497f9722a3daafe3b4186f6b6457e090600090a35050565b80546001019055565b61173b806100b06000396000f3fe6080604052600436106100c25760003560e01c8063715018a61161007f578063c9198bb511610059578063c9198bb514610202578063d8cba25114610222578063de74e57b14610242578063f2fde38b1461030e57600080fd5b8063715018a6146101a357806387c35bc0146101b85780638da5cb5b146101da57600080fd5b8063107a274a146100c757806324780c56146100fd578063305a67a81461012b578063476343ee1461014d57806351ed8288146101625780636a16696414610175575b600080fd5b3480156100d357600080fd5b506100e76100e2366004611479565b61032e565b6040516100f49190611502565b60405180910390f35b34801561010957600080fd5b5061011d61011836600461152c565b6103bf565b6040519081526020016100f4565b34801561013757600080fd5b5061014b610146366004611479565b61077a565b005b34801561015957600080fd5b5061014b61087d565b61014b610170366004611479565b610978565b34801561018157600080fd5b506003546101909061ffff1681565b60405161ffff90911681526020016100f4565b3480156101af57600080fd5b5061014b610e67565b3480156101c457600080fd5b506101cd610e7b565b6040516100f49190611561565b3480156101e657600080fd5b506001546040516001600160a01b0390911681526020016100f4565b34801561020e57600080fd5b5061014b61021d3660046115b0565b611029565b34801561022e57600080fd5b506101cd61023d3660046115d4565b6110c9565b34801561024e57600080fd5b506102bc61025d366004611479565b600460208190526000918252604090912080546001820154600283015460038401549484015460058501546006860154600787015460089097015495976001600160a01b039586169794969086169590931693919260ff909116919089565b60408051998a526001600160a01b0398891660208b0152890196909652938616606088015294909116608086015260a085015291151560c084015260e0830191909152610100820152610120016100f4565b34801561031a57600080fd5b5061014b6103293660046115d4565b61128c565b610336611410565b506000908152600460208181526040928390208351610120810185528154815260018201546001600160a01b039081169382019390935260028201549481019490945260038101548216606085015291820154166080830152600581015460a0830152600681015460ff16151560c0830152600781015460e08301526008015461010082015290565b60006103c961130b565b6000821161041e5760405162461bcd60e51b815260206004820152601c60248201527f5072696365206d7573742062652067726561746572207468616e20300000000060448201526064015b60405180910390fd5b6040516331a9108f60e11b81526004810184905233906001600160a01b03861690636352211e90602401602060405180830381865afa158015610465573d6000803e3d6000fd5b505050506040513d601f19601f8201168201806040525081019061048991906115f1565b6001600160a01b0316146104d85760405162461bcd60e51b8152602060048201526016602482015275165bdd48191bdb89dd081bdddb881d1a1a5cc813919560521b6044820152606401610415565b60405163e985e9c560e01b81523360048201523060248201526001600160a01b0385169063e985e9c590604401602060405180830381865afa158015610522573d6000803e3d6000fd5b505050506040513d601f19601f82011682018060405250810190610546919061160e565b6105a35760405162461bcd60e51b815260206004820152602860248201527f4d61726b6574706c616365206e6f7420617070726f76656420746f207472616e6044820152671cd9995c8813919560c21b6064820152608401610415565b60006105ae60025490565b90506105be600280546001019055565b604051806101200160405280828152602001866001600160a01b03168152602001858152602001336001600160a01b0316815260200160006001600160a01b031681526020018481526020016001151581526020014281526020016000815250600460008381526020019081526020016000206000820151816000015560208201518160010160006101000a8154816001600160a01b0302191690836001600160a01b031602179055506040820151816002015560608201518160030160006101000a8154816001600160a01b0302191690836001600160a01b0316021790555060808201518160040160006101000a8154816001600160a01b0302191690836001600160a01b0316021790555060a0820151816005015560c08201518160060160006101000a81548160ff02191690831515021790555060e08201518160070155610100820151816008015590505083856001600160a01b0316827fbfe9724d0a7254cfbb4f315c27418ff3751aebb099764b83fb3a4e2ca00e69d0338760405161075f9291906001600160a01b03929092168252602082015260400190565b60405180910390a490506107736001600055565b9392505050565b61078261130b565b6000818152600460205260409020600681015460ff166107dc5760405162461bcd60e51b81526020600482015260156024820152744c697374696e67206973206e6f742061637469766560581b6044820152606401610415565b60038101546001600160a01b031633146108385760405162461bcd60e51b815260206004820152601e60248201527f4f6e6c792073656c6c65722063616e2063616e63656c206c697374696e6700006044820152606401610415565b60068101805460ff1916905560405182907f411aee90354c51b1b04cd563fcab2617142a9d50da19232d888547c8a1b7fd8a90600090a25061087a6001600055565b50565b610885611364565b47806108cc5760405162461bcd60e51b81526020600482015260166024820152754e6f2062616c616e636520746f20776974686472617760501b6044820152606401610415565b60006108e06001546001600160a01b031690565b6001600160a01b03168260405160006040518083038185875af1925050503d806000811461092a576040519150601f19603f3d011682016040523d82523d6000602084013e61092f565b606091505b50509050806109745760405162461bcd60e51b815260206004820152601160248201527015da5d1a191c985dd85b0819985a5b1959607a1b6044820152606401610415565b5050565b61098061130b565b6000818152600460205260409020600681015460ff166109da5760405162461bcd60e51b81526020600482015260156024820152744c697374696e67206973206e6f742061637469766560581b6044820152606401610415565b8060050154341015610a255760405162461bcd60e51b8152602060048201526014602482015273125b9cdd59999a58da595b9d081c185e5b595b9d60621b6044820152606401610415565b60038101546001600160a01b03163303610a815760405162461bcd60e51b815260206004820152601f60248201527f53656c6c65722063616e6e6f7420627579207468656972206f776e204e4654006044820152606401610415565b60068101805460ff191690556004810180546001600160a01b03191633179055426008820155600354600582015460009161271091610ac49161ffff1690611646565b610ace919061165d565b6001830154600284015460058501546040516363f688af60e11b815293945060009384936001600160a01b03169263c7ed115e92610b1792600401918252602082015260400190565b6040805180830381865afa925050508015610b4f575060408051601f3d908101601f19168201909252610b4c9181019061167f565b60015b610b5e57506000905080610b64565b90925090505b600081848660050154610b7791906116ad565b610b8191906116ad565b6001860154600387015460028801546040516323b872dd60e01b81526001600160a01b039283166004820152336024820152604481019190915292935016906323b872dd90606401600060405180830381600087803b158015610be357600080fd5b505af1158015610bf7573d6000803e3d6000fd5b505050506001600160a01b03831615801590610c135750600082115b15610cb6576000836001600160a01b03168360405160006040518083038185875af1925050503d8060008114610c65576040519150601f19603f3d011682016040523d82523d6000602084013e610c6a565b606091505b5050905080610cb45760405162461bcd60e51b81526020600482015260166024820152754661696c656420746f2073656e6420726f79616c747960501b6044820152606401610415565b505b60038501546040516000916001600160a01b03169083908381818185875af1925050503d8060008114610d05576040519150601f19603f3d011682016040523d82523d6000602084013e610d0a565b606091505b5050905080610d5b5760405162461bcd60e51b815260206004820181905260248201527f4661696c656420746f2073656e64207061796d656e7420746f2073656c6c65726044820152606401610415565b336001600160a01b0316877f8e378317cc1b9c64766fd136e5849da5f702d26a8f8b750115b7422909b2309f8860050154604051610d9b91815260200190565b60405180910390a38560050154341115610e575760058601546000903390610dc390346116ad565b604051600081818185875af1925050503d8060008114610dff576040519150601f19603f3d011682016040523d82523d6000602084013e610e04565b606091505b5050905080610e555760405162461bcd60e51b815260206004820152601f60248201527f4661696c656420746f20726566756e6420657863657373207061796d656e74006044820152606401610415565b505b50505050505061087a6001600055565b610e6f611364565b610e7960006113be565b565b606060006001610e8a60025490565b610e9491906116ad565b9050600060015b828111610edc5760008181526004602052604090206006015460ff1615610eca5781610ec6816116c0565b9250505b80610ed4816116c0565b915050610e9b565b5060008167ffffffffffffffff811115610ef857610ef86116d9565b604051908082528060200260200182016040528015610f3157816020015b610f1e611410565b815260200190600190039081610f165790505b509050600060015b84811161101f5760008181526004602052604090206006015460ff161561100d576000818152600460208181526040928390208351610120810185528154815260018201546001600160a01b039081169382019390935260028201549481019490945260038101548216606085015291820154166080830152600581015460a0830152600681015460ff16151560c0830152600781015460e0830152600801546101008201528351849084908110610ff357610ff36116ef565b60200260200101819052508180611009906116c0565b9250505b80611017816116c0565b915050610f39565b5090949350505050565b611031611364565b6103e88161ffff16111561107f5760405162461bcd60e51b81526020600482015260156024820152744665652063616e6e6f74206578636565642031302560581b6044820152606401610415565b6003805461ffff191661ffff83169081179091556040519081527faac7af1de7bcde8cd9b8257364e45a156af79e99d049952d2111cdce5be16d529060200160405180910390a150565b6060600060016110d860025490565b6110e291906116ad565b9050600060015b828111611134576000818152600460205260409020600301546001600160a01b03808716911603611122578161111e816116c0565b9250505b8061112c816116c0565b9150506110e9565b5060008167ffffffffffffffff811115611150576111506116d9565b60405190808252806020026020018201604052801561118957816020015b611176611410565b81526020019060019003908161116e5790505b509050600060015b848111611281576000818152600460205260409020600301546001600160a01b0380891691160361126f576000818152600460208181526040928390208351610120810185528154815260018201546001600160a01b039081169382019390935260028201549481019490945260038101548216606085015291820154166080830152600581015460a0830152600681015460ff16151560c0830152600781015460e0830152600801546101008201528351849084908110611255576112556116ef565b6020026020010181905250818061126b906116c0565b9250505b80611279816116c0565b915050611191565b509095945050505050565b611294611364565b6001600160a01b0381166112f95760405162461bcd60e51b815260206004820152602660248201527f4f776e61626c653a206e6577206f776e657220697320746865207a65726f206160448201526564647265737360d01b6064820152608401610415565b61087a816113be565b80546001019055565b60026000540361135d5760405162461bcd60e51b815260206004820152601f60248201527f5265656e7472616e637947756172643a207265656e7472616e742063616c6c006044820152606401610415565b6002600055565b6001546001600160a01b03163314610e795760405162461bcd60e51b815260206004820181905260248201527f4f776e61626c653a2063616c6c6572206973206e6f7420746865206f776e65726044820152606401610415565b600180546001600160a01b038381166001600160a01b0319831681179093556040519116919082907f8be0079c531659141344cd1fd0a4f28419497f9722a3daafe3b4186f6b6457e090600090a35050565b6040518061012001604052806000815260200160006001600160a01b031681526020016000815260200160006001600160a01b0316815260200160006001600160a01b031681526020016000815260200160001515815260200160008152602001600081525090565b60006020828403121561148b57600080fd5b5035919050565b80518252602081015160018060a01b03808216602085015260408301516040850152806060840151166060850152806080840151166080850152505060a081015160a083015260c08101516114eb60c084018215159052565b5060e0818101519083015261010090810151910152565b61012081016115118284611492565b92915050565b6001600160a01b038116811461087a57600080fd5b60008060006060848603121561154157600080fd5b833561154c81611517565b95602085013595506040909401359392505050565b6020808252825182820181905260009190848201906040850190845b818110156115a457611590838551611492565b92840192610120929092019160010161157d565b50909695505050505050565b6000602082840312156115c257600080fd5b813561ffff8116811461077357600080fd5b6000602082840312156115e657600080fd5b813561077381611517565b60006020828403121561160357600080fd5b815161077381611517565b60006020828403121561162057600080fd5b8151801515811461077357600080fd5b634e487b7160e01b600052601160045260246000fd5b808202811582820484141761151157611511611630565b60008261167a57634e487b7160e01b600052601260045260246000fd5b500490565b6000806040838503121561169257600080fd5b825161169d81611517565b6020939093015192949293505050565b8181038181111561151157611511611630565b6000600182016116d2576116d2611630565b5060010190565b634e487b7160e01b600052604160045260246000fd5b634e487b7160e01b600052603260045260246000fdfea26469706673582212205288e5ba3abb42fa3c2ea78999a8e8a07bf85879cd2c78de224510e51d7afa8c64736f6c63430008110033",
  "linkReferences": {},
  "deployedLinkReferences": {}
}